{
  "_format": "hh-sol-artifact-1",
  "contractName": "LogosRegistry",
  "sourceName": "contracts/core/LogosRegistry.sol",
  "abi": [
    {
      "inputs": [],
      "stateMutability": "nonpayable",
      "type": "constructor"
    },
    {
      "inputs": [
        {
          "internalType": "address",
          "name": "owner",
          "type": "address"
        }
      ],
      "name": "OwnableInvalidOwner",
      "type": "error"
    },
    {
      "inputs": [
        {
          "internalType": "address",
          "name": "account",
          "type": "address"
        }
      ],
      "name": "OwnableUnauthorizedAccount",
      "type": "error"
    },
    {
      "anonymous": false,
      "inputs": [
        {
          "indexed": true,
          "internalType": "uint256",
          "name": "logosId",
          "type": "uint256"
        },
        {
          "indexed": true,
          "internalType": "address",
          "name": "owner",
          "type": "address"
        },
        {
          "indexed": false,
          "internalType": "string",
          "name": "name",
          "type": "string"
        }
      ],
      "name": "LogosCreated",
      "type": "event"
    },
    {
      "anonymous": false,
      "inputs": [
        {
          "indexed": true,
          "internalType": "uint256",
          "name": "logosId",
          "type": "uint256"
        }
      ],
      "name": "LogosDeactivated",
      "type": "event"
    },
    {
      "anonymous": false,
      "inputs": [
        {
          "indexed": true,
          "internalType": "uint256",
          "name": "logosId",
          "type": "uint256"
        },
        {
          "indexed": false,
          "internalType": "uint256",
          "name": "earnings",
          "type": "uint256"
        }
      ],
      "name": "LogosTaskCompleted",
      "type": "event"
    },
    {
      "anonymous": false,
      "inputs": [
        {
          "indexed": true,
          "internalType": "uint256",
          "name": "logosId",
          "type": "uint256"
        },
        {
          "indexed": false,
          "internalType": "string",
          "name": "name",
          "type": "string"
        },
        {
          "indexed": false,
          "internalType": "string",
          "name": "description",
          "type": "string"
        }
      ],
      "name": "LogosUpdated",
      "type": "event"
    },
    {
      "anonymous": false,
      "inputs": [
        {
          "indexed": true,
          "internalType": "address",
          "name": "previousOwner",
          "type": "address"
        },
        {
          "indexed": true,
          "internalType": "address",
          "name": "newOwner",
          "type": "address"
        }
      ],
      "name": "OwnershipTransferred",
      "type": "event"
    },
    {
      "inputs": [
        {
          "internalType": "address",
          "name": "",
          "type": "address"
        }
      ],
      "name": "authorizedContracts",
      "outputs": [
        {
          "internalType": "bool",
          "name": "",
          "type": "bool"
        }
      ],
      "stateMutability": "view",
      "type": "function"
    },
    {
      "inputs": [
        {
          "internalType": "string",
          "name": "name",
          "type": "string"
        },
        {
          "internalType": "string",
          "name": "description",
          "type": "string"
        }
      ],
      "name": "createLOGOS",
      "outputs": [
        {
          "internalType": "uint256",
          "name": "",
          "type": "uint256"
        }
      ],
      "stateMutability": "nonpayable",
      "type": "function"
    },
    {
      "inputs": [
        {
          "internalType": "uint256",
          "name": "logosId",
          "type": "uint256"
        }
      ],
      "name": "deactivateLOGOS",
      "outputs": [],
      "stateMutability": "nonpayable",
      "type": "function"
    },
    {
      "inputs": [
        {
          "internalType": "uint256",
          "name": "logosId",
          "type": "uint256"
        }
      ],
      "name": "getLOGOS",
      "outputs": [
        {
          "components": [
            {
              "internalType": "address",
              "name": "owner",
              "type": "address"
            },
            {
              "internalType": "address",
              "name": "smartAccount",
              "type": "address"
            },
            {
              "internalType": "string",
              "name": "name",
              "type": "string"
            },
            {
              "internalType": "string",
              "name": "description",
              "type": "string"
            },
            {
              "internalType": "uint256",
              "name": "createdAt",
              "type": "uint256"
            },
            {
              "internalType": "uint256",
              "name": "totalTasks",
              "type": "uint256"
            },
            {
              "internalType": "uint256",
              "name": "totalEarnings",
              "type": "uint256"
            },
            {
              "internalType": "bool",
              "name": "isActive",
              "type": "bool"
            }
          ],
          "internalType": "struct LogosRegistry.LogosAgent",
          "name": "",
          "type": "tuple"
        }
      ],
      "stateMutability": "view",
      "type": "function"
    },
    {
      "inputs": [
        {
          "internalType": "address",
          "name": "smartAccount",
          "type": "address"
        }
      ],
      "name": "getLogosBySmartAccount",
      "outputs": [
        {
          "internalType": "uint256",
          "name": "",
          "type": "uint256"
        }
      ],
      "stateMutability": "view",
      "type": "function"
    },
    {
      "inputs": [
        {
          "internalType": "address",
          "name": "owner",
          "type": "address"
        }
      ],
      "name": "getOwnerLogos",
      "outputs": [
        {
          "internalType": "uint256[]",
          "name": "",
          "type": "uint256[]"
        }
      ],
      "stateMutability": "view",
      "type": "function"
    },
    {
      "inputs": [
        {
          "internalType": "uint256",
          "name": "logosId",
          "type": "uint256"
        }
      ],
      "name": "isLogosActive",
      "outputs": [
        {
          "internalType": "bool",
          "name": "",
          "type": "bool"
        }
      ],
      "stateMutability": "view",
      "type": "function"
    },
    {
      "inputs": [
        {
          "internalType": "uint256",
          "name": "",
          "type": "uint256"
        }
      ],
      "name": "logosAgents",
      "outputs": [
        {
          "internalType": "address",
          "name": "owner",
          "type": "address"
        },
        {
          "internalType": "address",
          "name": "smartAccount",
          "type": "address"
        },
        {
          "internalType": "string",
          "name": "name",
          "type": "string"
        },
        {
          "internalType": "string",
          "name": "description",
          "type": "string"
        },
        {
          "internalType": "uint256",
          "name": "createdAt",
          "type": "uint256"
        },
        {
          "internalType": "uint256",
          "name": "totalTasks",
          "type": "uint256"
        },
        {
          "internalType": "uint256",
          "name": "totalEarnings",
          "type": "uint256"
        },
        {
          "internalType": "bool",
          "name": "isActive",
          "type": "bool"
        }
      ],
      "stateMutability": "view",
      "type": "function"
    },
    {
      "inputs": [],
      "name": "owner",
      "outputs": [
        {
          "internalType": "address",
          "name": "",
          "type": "address"
        }
      ],
      "stateMutability": "view",
      "type": "function"
    },
    {
      "inputs": [
        {
          "internalType": "address",
          "name": "",
          "type": "address"
        },
        {
          "internalType": "uint256",
          "name": "",
          "type": "uint256"
        }
      ],
      "name": "ownerLogos",
      "outputs": [
        {
          "internalType": "uint256",
          "name": "",
          "type": "uint256"
        }
      ],
      "stateMutability": "view",
      "type": "function"
    },
    {
      "inputs": [
        {
          "internalType": "uint256",
          "name": "logosId",
          "type": "uint256"
        },
        {
          "internalType": "uint256",
          "name": "earnings",
          "type": "uint256"
        }
      ],
      "name": "recordTaskCompletion",
      "outputs": [],
      "stateMutability": "nonpayable",
      "type": "function"
    },
    {
      "inputs": [],
      "name": "renounceOwnership",
      "outputs": [],
      "stateMutability": "nonpayable",
      "type": "function"
    },
    {
      "inputs": [
        {
          "internalType": "address",
          "name": "contractAddress",
          "type": "address"
        },
        {
          "internalType": "bool",
          "name": "authorized",
          "type": "bool"
        }
      ],
      "name": "setAuthorizedContract",
      "outputs": [],
      "stateMutability": "nonpayable",
      "type": "function"
    },
    {
      "inputs": [
        {
          "internalType": "address",
          "name": "",
          "type": "address"
        }
      ],
      "name": "smartAccountToLogos",
      "outputs": [
        {
          "internalType": "uint256",
          "name": "",
          "type": "uint256"
        }
      ],
      "stateMutability": "view",
      "type": "function"
    },
    {
      "inputs": [],
      "name": "totalLogosCount",
      "outputs": [
        {
          "internalType": "uint256",
          "name": "",
          "type": "uint256"
        }
      ],
      "stateMutability": "view",
      "type": "function"
    },
    {
      "inputs": [
        {
          "internalType": "address",
          "name": "newOwner",
          "type": "address"
        }
      ],
      "name": "transferOwnership",
      "outputs": [],
      "stateMutability": "nonpayable",
      "type": "function"
    },
    {
      "inputs": [
        {
          "internalType": "uint256",
          "name": "logosId",
          "type": "uint256"
        },
        {
          "internalType": "string",
          "name": "name",
          "type": "string"
        },
        {
          "internalType": "string",
          "name": "description",
          "type": "string"
        }
      ],
      "name": "updateLOGOS",
      "outputs": [],
      "stateMutability": "nonpayable",
      "type": "function"
    }
  ],
  "bytecode": "0x608060405234801561001057600080fd5b50338061003757604051631e4fbdf760e01b81526000600482015260240160405180910390fd5b61004081610046565b50610096565b600080546001600160a01b038381166001600160a01b0319831681178455604051919092169283917f8be0079c531659141344cd1fd0a4f28419497f9722a3daafe3b4186f6b6457e09190a35050565b611461806100a56000396000f3fe608060405234801561001057600080fd5b506004361061010b5760003560e01c8063715018a6116100a2578063c4b22f0d11610071578063c4b22f0d14610262578063d5b9221b14610282578063d9e40622146102a5578063f2fa7392146102b8578063f2fde38b146102cb57600080fd5b8063715018a6146101ef5780638da5cb5b146101f75780639589c67c14610212578063a444777e1461023b57600080fd5b80632cf5c481116100de5780632cf5c481146101965780634bb2f54b146101a95780634fa1ef74146101bc57806366ed054b146101dc57600080fd5b8063028750861461011057806307576202146101395780631d8972ad1461014e5780632544d2cf14610160575b600080fd5b61012361011e366004610e4a565b6102de565b6040516101309190610e6c565b60405180910390f35b61014c610147366004610eb0565b61034a565b005b6001545b604051908152602001610130565b61018661016e366004610ed2565b60009081526002602052604090206007015460ff1690565b6040519015158152602001610130565b61014c6101a4366004610f8e565b6104a5565b6101526101b7366004610ffb565b610651565b6101526101ca366004610e4a565b60046020526000908152604090205481565b6101526101ea36600461105f565b610846565b61014c610877565b6000546040516001600160a01b039091168152602001610130565b610152610220366004610e4a565b6001600160a01b031660009081526004602052604090205490565b61024e610249366004610ed2565b61088b565b6040516101309897969594939291906110cf565b610275610270366004610ed2565b6109ef565b604051610130919061113a565b610186610290366004610e4a565b60056020526000908152604090205460ff1681565b61014c6102b3366004610ed2565b610c3b565b61014c6102c63660046111e0565b610d40565b61014c6102d9366004610e4a565b610d73565b6001600160a01b03811660009081526003602090815260409182902080548351818402810184019094528084526060939283018282801561033e57602002820191906000526020600020905b81548152602001906001019080831161032a575b50505050509050919050565b3360009081526005602052604090205460ff168061037257506000546001600160a01b031633145b6103c35760405162461bcd60e51b815260206004820152601d60248201527f4c6f676f7352656769737472793a204e6f7420617574686f72697a656400000060448201526064015b60405180910390fd5b60008281526002602052604090206007015460ff166104245760405162461bcd60e51b815260206004820152601d60248201527f4c6f676f7352656769737472793a204c4f474f5320696e61637469766500000060448201526064016103ba565b600082815260026020526040812060050180549161044183611232565b90915550506000828152600260205260408120600601805483929061046790849061124b565b909155505060405181815282907fb4788a3fad8bc92456acf3a3b58133508352cc18b4e91e8f9643e5e934e7d29b9060200160405180910390a25050565b6000838152600260205260409020546001600160a01b031633146105065760405162461bcd60e51b81526020600482015260186024820152772637b3b7b9a932b3b4b9ba393c9d102737ba1037bbb732b960411b60448201526064016103ba565b60008381526002602052604090206007015460ff166105675760405162461bcd60e51b815260206004820152601d60248201527f4c6f676f7352656769737472793a204c4f474f5320696e61637469766500000060448201526064016103ba565b60008251116105b85760405162461bcd60e51b815260206004820152601c60248201527f4c6f676f7352656769737472793a204e616d652072657175697265640000000060448201526064016103ba565b60008151116105d95760405162461bcd60e51b81526004016103ba9061125e565b6000838152600260208190526040909120016105f5838261132a565b506000838152600260205260409020600301610611828261132a565b50827f32cf2af7301634e184d28e92b713990ebbc45a08d4810ac95e36c2f8c06761a383836040516106449291906113ea565b60405180910390a2505050565b6000808351116106a35760405162461bcd60e51b815260206004820152601c60248201527f4c6f676f7352656769737472793a204e616d652072657175697265640000000060448201526064016103ba565b60008251116106c45760405162461bcd60e51b81526004016103ba9061125e565b600180549060006106d483611232565b90915550506001805460408051610100810182523381526001600160a01b0380841660208084019182528385018a8152606085018a9052426080860152600060a0860181905260c0860181905260e0860189905287815260029283905295909520845181549085166001600160a01b03199182161782559251978101805498909416979092169690961790915591519293849391929190820190610778908261132a565b506060820151600382019061078d908261132a565b50608082015160048281019190915560a0830151600583015560c0830151600683015560e0909201516007909101805460ff19169115159190911790553360008181526003602090815260408083208054600181018255908452828420018790556001600160a01b0386168352939052829020849055905183907f196c590fddb498704dc073eb05955a5cf7921ae4728955ce5f8688d1936b600690610834908990611418565b60405180910390a35090505b92915050565b6003602052816000526040600020818154811061086257600080fd5b90600052602060002001600091509150505481565b61087f610db1565b6108896000610dde565b565b60026020819052600091825260409091208054600182015492820180546001600160a01b039283169490921692916108c2906112a1565b80601f01602080910402602001604051908101604052809291908181526020018280546108ee906112a1565b801561093b5780601f106109105761010080835404028352916020019161093b565b820191906000526020600020905b81548152906001019060200180831161091e57829003601f168201915b505050505090806003018054610950906112a1565b80601f016020809104026020016040519081016040528092919081815260200182805461097c906112a1565b80156109c95780601f1061099e576101008083540402835291602001916109c9565b820191906000526020600020905b8154815290600101906020018083116109ac57829003601f168201915b505050506004830154600584015460068501546007909501549394919390925060ff1688565b610a4b60405180610100016040528060006001600160a01b0316815260200160006001600160a01b0316815260200160608152602001606081526020016000815260200160008152602001600081526020016000151581525090565b600082815260026020526040902060040154610aa95760405162461bcd60e51b815260206004820152601e60248201527f4c6f676f7352656769737472793a204c4f474f53206e6f7420666f756e64000060448201526064016103ba565b60008281526002602081815260409283902083516101008101855281546001600160a01b0390811682526001830154169281019290925291820180549193840191610af3906112a1565b80601f0160208091040260200160405190810160405280929190818152602001828054610b1f906112a1565b8015610b6c5780601f10610b4157610100808354040283529160200191610b6c565b820191906000526020600020905b815481529060010190602001808311610b4f57829003601f168201915b50505050508152602001600382018054610b85906112a1565b80601f0160208091040260200160405190810160405280929190818152602001828054610bb1906112a1565b8015610bfe5780601f10610bd357610100808354040283529160200191610bfe565b820191906000526020600020905b815481529060010190602001808311610be157829003601f168201915b505050918352505060048201546020820152600582015460408201526006820154606082015260079091015460ff16151560809091015292915050565b6000818152600260205260409020546001600160a01b03163314610c9c5760405162461bcd60e51b81526020600482015260186024820152772637b3b7b9a932b3b4b9ba393c9d102737ba1037bbb732b960411b60448201526064016103ba565b60008181526002602052604090206007015460ff16610cfd5760405162461bcd60e51b815260206004820152601f60248201527f4c6f676f7352656769737472793a20416c726561647920696e6163746976650060448201526064016103ba565b600081815260026020526040808220600701805460ff191690555182917fa1d9e6ebeb9c9d4cb83b5423ca0004bc3d9c3f30ab5a151a96736cdfb23929e191a250565b610d48610db1565b6001600160a01b03919091166000908152600560205260409020805460ff1916911515919091179055565b610d7b610db1565b6001600160a01b038116610da557604051631e4fbdf760e01b8152600060048201526024016103ba565b610dae81610dde565b50565b6000546001600160a01b031633146108895760405163118cdaa760e01b81523360048201526024016103ba565b600080546001600160a01b038381166001600160a01b0319831681178455604051919092169283917f8be0079c531659141344cd1fd0a4f28419497f9722a3daafe3b4186f6b6457e09190a35050565b80356001600160a01b0381168114610e4557600080fd5b919050565b600060208284031215610e5c57600080fd5b610e6582610e2e565b9392505050565b6020808252825182820181905260009190848201906040850190845b81811015610ea457835183529284019291840191600101610e88565b50909695505050505050565b60008060408385031215610ec357600080fd5b50508035926020909101359150565b600060208284031215610ee457600080fd5b5035919050565b634e487b7160e01b600052604160045260246000fd5b600082601f830112610f1257600080fd5b813567ffffffffffffffff80821115610f2d57610f2d610eeb565b604051601f8301601f19908116603f01168101908282118183101715610f5557610f55610eeb565b81604052838152866020858801011115610f6e57600080fd5b836020870160208301376000602085830101528094505050505092915050565b600080600060608486031215610fa357600080fd5b83359250602084013567ffffffffffffffff80821115610fc257600080fd5b610fce87838801610f01565b93506040860135915080821115610fe457600080fd5b50610ff186828701610f01565b9150509250925092565b6000806040838503121561100e57600080fd5b823567ffffffffffffffff8082111561102657600080fd5b61103286838701610f01565b9350602085013591508082111561104857600080fd5b5061105585828601610f01565b9150509250929050565b6000806040838503121561107257600080fd5b61107b83610e2e565b946020939093013593505050565b6000815180845260005b818110156110af57602081850181015186830182015201611093565b506000602082860101526020601f19601f83011685010191505092915050565b6001600160a01b03898116825288166020820152610100604082018190526000906110fc8382018a611089565b905082810360608401526111108189611089565b9150508560808301528460a08301528360c083015282151560e08301529998505050505050505050565b602080825282516001600160a01b03168282015282015160009061116960408401826001600160a01b03169052565b506040830151610100806060850152611186610120850183611089565b91506060850151601f198584030160808601526111a38382611089565b925050608085015160a085015260a085015160c085015260c085015160e085015260e08501516111d68286018215159052565b5090949350505050565b600080604083850312156111f357600080fd5b6111fc83610e2e565b91506020830135801515811461121157600080fd5b809150509250929050565b634e487b7160e01b600052601160045260246000fd5b6000600182016112445761124461121c565b5060010190565b808201808211156108405761084061121c565b60208082526023908201527f4c6f676f7352656769737472793a204465736372697074696f6e2072657175696040820152621c995960ea1b606082015260800190565b600181811c908216806112b557607f821691505b6020821081036112d557634e487b7160e01b600052602260045260246000fd5b50919050565b601f82111561132557600081815260208120601f850160051c810160208610156113025750805b601f850160051c820191505b818110156113215782815560010161130e565b5050505b505050565b815167ffffffffffffffff81111561134457611344610eeb565b6113588161135284546112a1565b846112db565b602080601f83116001811461138d57600084156113755750858301515b600019600386901b1c1916600185901b178555611321565b600085815260208120601f198616915b828110156113bc5788860151825594840194600190910190840161139d565b50858210156113da5787850151600019600388901b60f8161c191681555b5050505050600190811b01905550565b6040815260006113fd6040830185611089565b828103602084015261140f8185611089565b95945050505050565b602081526000610e65602083018461108956fea2646970667358221220b2931765c044093141ff1ecbe530bbfc3988dccc9d530bb7697e205d947d00dc64736f6c63430008140033",
  "linkReferences": {},
  "deployedLinkReferences": {}
}