{
  "_format": "hh-sol-artifact-1",
  "contractName": "QiBank",
  "sourceName": "contracts/core/QiBank.sol",
  "abi": [
    {
      "inputs": [
        {
          "internalType": "address",
          "name": "_qiToken",
          "type": "address"
        }
      ],
      "stateMutability": "nonpayable",
      "type": "constructor"
    },
    {
      "inputs": [
        {
          "internalType": "address",
          "name": "owner",
          "type": "address"
        }
      ],
      "name": "OwnableInvalidOwner",
      "type": "error"
    },
    {
      "inputs": [
        {
          "internalType": "address",
          "name": "account",
          "type": "address"
        }
      ],
      "name": "OwnableUnauthorizedAccount",
      "type": "error"
    },
    {
      "inputs": [],
      "name": "ReentrancyGuardReentrantCall",
      "type": "error"
    },
    {
      "anonymous": false,
      "inputs": [
        {
          "indexed": true,
          "internalType": "address",
          "name": "caller",
          "type": "address"
        },
        {
          "indexed": false,
          "internalType": "bool",
          "name": "authorized",
          "type": "bool"
        }
      ],
      "name": "CallerAuthorized",
      "type": "event"
    },
    {
      "anonymous": false,
      "inputs": [
        {
          "indexed": true,
          "internalType": "address",
          "name": "previousOwner",
          "type": "address"
        },
        {
          "indexed": true,
          "internalType": "address",
          "name": "newOwner",
          "type": "address"
        }
      ],
      "name": "OwnershipTransferred",
      "type": "event"
    },
    {
      "anonymous": false,
      "inputs": [
        {
          "indexed": true,
          "internalType": "uint256",
          "name": "taskId",
          "type": "uint256"
        },
        {
          "indexed": true,
          "internalType": "address",
          "name": "user",
          "type": "address"
        },
        {
          "indexed": false,
          "internalType": "uint256",
          "name": "amount",
          "type": "uint256"
        }
      ],
      "name": "QIAllocated",
      "type": "event"
    },
    {
      "anonymous": false,
      "inputs": [
        {
          "indexed": false,
          "internalType": "uint256",
          "name": "amount",
          "type": "uint256"
        },
        {
          "indexed": false,
          "internalType": "string",
          "name": "reason",
          "type": "string"
        }
      ],
      "name": "QIBurned",
      "type": "event"
    },
    {
      "anonymous": false,
      "inputs": [
        {
          "indexed": true,
          "internalType": "uint256",
          "name": "taskId",
          "type": "uint256"
        },
        {
          "indexed": true,
          "internalType": "address",
          "name": "user",
          "type": "address"
        },
        {
          "indexed": false,
          "internalType": "uint256",
          "name": "amount",
          "type": "uint256"
        }
      ],
      "name": "QIRefunded",
      "type": "event"
    },
    {
      "anonymous": false,
      "inputs": [
        {
          "indexed": true,
          "internalType": "uint256",
          "name": "taskId",
          "type": "uint256"
        },
        {
          "indexed": false,
          "internalType": "uint256",
          "name": "amount",
          "type": "uint256"
        },
        {
          "indexed": false,
          "internalType": "string",
          "name": "reason",
          "type": "string"
        }
      ],
      "name": "QISpent",
      "type": "event"
    },
    {
      "inputs": [
        {
          "internalType": "uint256",
          "name": "taskId",
          "type": "uint256"
        },
        {
          "internalType": "address",
          "name": "user",
          "type": "address"
        },
        {
          "internalType": "uint256",
          "name": "amount",
          "type": "uint256"
        }
      ],
      "name": "allocateQI",
      "outputs": [],
      "stateMutability": "nonpayable",
      "type": "function"
    },
    {
      "inputs": [
        {
          "internalType": "address",
          "name": "",
          "type": "address"
        }
      ],
      "name": "authorizedCallers",
      "outputs": [
        {
          "internalType": "bool",
          "name": "",
          "type": "bool"
        }
      ],
      "stateMutability": "view",
      "type": "function"
    },
    {
      "inputs": [
        {
          "internalType": "uint256",
          "name": "amount",
          "type": "uint256"
        },
        {
          "internalType": "string",
          "name": "reason",
          "type": "string"
        }
      ],
      "name": "burnQI",
      "outputs": [],
      "stateMutability": "nonpayable",
      "type": "function"
    },
    {
      "inputs": [
        {
          "internalType": "uint256",
          "name": "taskId",
          "type": "uint256"
        }
      ],
      "name": "getBudget",
      "outputs": [
        {
          "components": [
            {
              "internalType": "uint256",
              "name": "allocated",
              "type": "uint256"
            },
            {
              "internalType": "uint256",
              "name": "spent",
              "type": "uint256"
            },
            {
              "internalType": "uint256",
              "name": "remaining",
              "type": "uint256"
            },
            {
              "internalType": "bool",
              "name": "isActive",
              "type": "bool"
            }
          ],
          "internalType": "struct QiBank.QiBudget",
          "name": "",
          "type": "tuple"
        }
      ],
      "stateMutability": "view",
      "type": "function"
    },
    {
      "inputs": [],
      "name": "owner",
      "outputs": [
        {
          "internalType": "address",
          "name": "",
          "type": "address"
        }
      ],
      "stateMutability": "view",
      "type": "function"
    },
    {
      "inputs": [],
      "name": "qiToken",
      "outputs": [
        {
          "internalType": "contract QIToken",
          "name": "",
          "type": "address"
        }
      ],
      "stateMutability": "view",
      "type": "function"
    },
    {
      "inputs": [
        {
          "internalType": "uint256",
          "name": "taskId",
          "type": "uint256"
        },
        {
          "internalType": "address",
          "name": "recipient",
          "type": "address"
        }
      ],
      "name": "refundUnusedQI",
      "outputs": [],
      "stateMutability": "nonpayable",
      "type": "function"
    },
    {
      "inputs": [],
      "name": "renounceOwnership",
      "outputs": [],
      "stateMutability": "nonpayable",
      "type": "function"
    },
    {
      "inputs": [
        {
          "internalType": "address",
          "name": "caller",
          "type": "address"
        },
        {
          "internalType": "bool",
          "name": "authorized",
          "type": "bool"
        }
      ],
      "name": "setAuthorizedCaller",
      "outputs": [],
      "stateMutability": "nonpayable",
      "type": "function"
    },
    {
      "inputs": [
        {
          "internalType": "uint256",
          "name": "taskId",
          "type": "uint256"
        },
        {
          "internalType": "uint256",
          "name": "amount",
          "type": "uint256"
        },
        {
          "internalType": "string",
          "name": "reason",
          "type": "string"
        }
      ],
      "name": "spendQI",
      "outputs": [],
      "stateMutability": "nonpayable",
      "type": "function"
    },
    {
      "inputs": [
        {
          "internalType": "uint256",
          "name": "",
          "type": "uint256"
        }
      ],
      "name": "taskBudgets",
      "outputs": [
        {
          "internalType": "uint256",
          "name": "allocated",
          "type": "uint256"
        },
        {
          "internalType": "uint256",
          "name": "spent",
          "type": "uint256"
        },
        {
          "internalType": "uint256",
          "name": "remaining",
          "type": "uint256"
        },
        {
          "internalType": "bool",
          "name": "isActive",
          "type": "bool"
        }
      ],
      "stateMutability": "view",
      "type": "function"
    },
    {
      "inputs": [
        {
          "internalType": "address",
          "name": "newOwner",
          "type": "address"
        }
      ],
      "name": "transferOwnership",
      "outputs": [],
      "stateMutability": "nonpayable",
      "type": "function"
    }
  ],
  "bytecode": "0x60a060405234801561001057600080fd5b5060405161113738038061113783398101604081905261002f9161011e565b6001600055338061005b57604051631e4fbdf760e01b8152600060048201526024015b60405180910390fd5b610064816100cc565b506001600160a01b0381166100bb5760405162461bcd60e51b815260206004820181905260248201527f516942616e6b3a20496e76616c696420514920746f6b656e20616464726573736044820152606401610052565b6001600160a01b031660805261014e565b600180546001600160a01b038381166001600160a01b0319831681179093556040519116919082907f8be0079c531659141344cd1fd0a4f28419497f9722a3daafe3b4186f6b6457e090600090a35050565b60006020828403121561013057600080fd5b81516001600160a01b038116811461014757600080fd5b9392505050565b608051610fb261018560003960008181610137015281816105960152818161082a015281816109db0152610ab20152610fb26000f3fe608060405234801561001057600080fd5b50600436106100b45760003560e01c8063715018a611610071578063715018a6146101b757806380a9e882146101bf5780638da5cb5b1461021b578063e447bd351461022c578063f2fde38b1461023f578063fcb3e8f91461025257600080fd5b806305817c7f146100b95780632e4ea4c4146100ce578063454bbd291461011f578063462e4cda14610132578063536fff6c146101715780635729369b146101a4575b600080fd5b6100cc6100c7366004610ca5565b610265565b005b6100e16100dc366004610cf5565b6103d6565b604051610116919081518152602080830151908201526040808301519082015260609182015115159181019190915260800190565b60405180910390f35b6100cc61012d366004610d38565b61044a565b6101597f000000000000000000000000000000000000000000000000000000000000000081565b6040516001600160a01b039091168152602001610116565b61019461017f366004610d6f565b60036020526000908152604090205460ff1681565b6040519015158152602001610116565b6100cc6101b2366004610d91565b6104b1565b6100cc6106f1565b6101f96101cd366004610cf5565b600260208190526000918252604090912080546001820154928201546003909201549092919060ff1684565b6040805194855260208501939093529183015215156060820152608001610116565b6001546001600160a01b0316610159565b6100cc61023a366004610dc6565b610705565b6100cc61024d366004610d6f565b61092f565b6100cc610260366004610df2565b61096d565b61026d610b59565b3360009081526003602052604090205460ff166102a55760405162461bcd60e51b815260040161029c90610e39565b60405180910390fd5b6000838152600260205260409020600381015460ff166103025760405162461bcd60e51b8152602060048201526018602482015277145a50985b9ace88139bc81858dd1a5d9948189d5919d95d60421b604482015260640161029c565b82816002015410156103565760405162461bcd60e51b815260206004820152601760248201527f516942616e6b3a20496e73756666696369656e74205149000000000000000000604482015260640161029c565b8281600101600082825461036a9190610e7f565b92505081905550828160020160008282546103859190610e98565b92505081905550837f9b5266138934e46b452229bbd844fecd6f71ac13ea332aa6c19c61b3fbc7afbc84846040516103be929190610eab565b60405180910390a2506103d16001600055565b505050565b61040360405180608001604052806000815260200160008152602001600081526020016000151581525090565b5060009081526002602081815260409283902083516080810185528154815260018201549281019290925291820154928101929092526003015460ff161515606082015290565b610452610b83565b6001600160a01b038216600081815260036020908152604091829020805460ff191685151590811790915591519182527f100c9fd652c7b273c9266f92f22ac2352eb8d7232013ac0439e9066a9227f369910160405180910390a25050565b6104b9610b59565b3360009081526003602052604090205460ff166104e85760405162461bcd60e51b815260040161029c90610e39565b600081116105085760405162461bcd60e51b815260040161029c90610f01565b60008381526002602052604090206003015460ff161561056a5760405162461bcd60e51b815260206004820181905260248201527f516942616e6b3a2042756467657420616c726561647920616c6c6f6361746564604482015260640161029c565b6040516323b872dd60e01b81526001600160a01b038381166004830152306024830152604482018390527f000000000000000000000000000000000000000000000000000000000000000016906323b872dd906064016020604051808303816000875af11580156105df573d6000803e3d6000fd5b505050506040513d601f19601f820116820180604052508101906106039190610f46565b61064f5760405162461bcd60e51b815260206004820152601760248201527f516942616e6b3a205472616e73666572206661696c6564000000000000000000604482015260640161029c565b60408051608081018252828152600060208083018281528385018681526001606086018181528a865260028086529588902096518755925190860155519284019290925590516003909201805460ff19169215159290921790915590518281526001600160a01b0384169185917f5be12b62f9523e21f78f202903d59cf2c7ab94e31c0e908f58810bf89cb8c9c5910160405180910390a36103d16001600055565b6106f9610b83565b6107036000610bb0565b565b61070d610b59565b3360009081526003602052604090205460ff1661073c5760405162461bcd60e51b815260040161029c90610e39565b6000828152600260205260409020600381015460ff166107995760405162461bcd60e51b8152602060048201526018602482015277145a50985b9ace88139bc81858dd1a5d9948189d5919d95d60421b604482015260640161029c565b60008160020154116107ed5760405162461bcd60e51b815260206004820152601760248201527f516942616e6b3a204e6f20514920746f20726566756e64000000000000000000604482015260640161029c565b600281018054600090915560038201805460ff1916905560405163a9059cbb60e01b81526001600160a01b038481166004830152602482018390527f0000000000000000000000000000000000000000000000000000000000000000169063a9059cbb906044016020604051808303816000875af1158015610873573d6000803e3d6000fd5b505050506040513d601f19601f820116820180604052508101906108979190610f46565b6108db5760405162461bcd60e51b8152602060048201526015602482015274145a50985b9ace881499599d5b990819985a5b1959605a1b604482015260640161029c565b826001600160a01b0316847f43e776c3aa9f78eadaa031325ddc543ee5237a65ee64910c546a405341935e7a8360405161091791815260200190565b60405180910390a3505061092b6001600055565b5050565b610937610b83565b6001600160a01b03811661096157604051631e4fbdf760e01b81526000600482015260240161029c565b61096a81610bb0565b50565b610975610b59565b3360009081526003602052604090205460ff166109a45760405162461bcd60e51b815260040161029c90610e39565b600082116109c45760405162461bcd60e51b815260040161029c90610f01565b6040516370a0823160e01b815230600482015282907f00000000000000000000000000000000000000000000000000000000000000006001600160a01b0316906370a0823190602401602060405180830381865afa158015610a2a573d6000803e3d6000fd5b505050506040513d601f19601f82011682018060405250810190610a4e9190610f63565b1015610a9c5760405162461bcd60e51b815260206004820152601c60248201527f516942616e6b3a20496e73756666696369656e742062616c616e636500000000604482015260640161029c565b604051630852cd8d60e31b8152600481018390527f00000000000000000000000000000000000000000000000000000000000000006001600160a01b0316906342966c6890602401600060405180830381600087803b158015610afe57600080fd5b505af1158015610b12573d6000803e3d6000fd5b505050507f50809526a0b818a1024aea2a03d8406c06b975fd7eb14387547c8d1fe3a946128282604051610b47929190610eab565b60405180910390a161092b6001600055565b600260005403610b7c57604051633ee5aeb560e01b815260040160405180910390fd5b6002600055565b6001546001600160a01b031633146107035760405163118cdaa760e01b815233600482015260240161029c565b600180546001600160a01b038381166001600160a01b0319831681179093556040519116919082907f8be0079c531659141344cd1fd0a4f28419497f9722a3daafe3b4186f6b6457e090600090a35050565b634e487b7160e01b600052604160045260246000fd5b600082601f830112610c2957600080fd5b813567ffffffffffffffff80821115610c4457610c44610c02565b604051601f8301601f19908116603f01168101908282118183101715610c6c57610c6c610c02565b81604052838152866020858801011115610c8557600080fd5b836020870160208301376000602085830101528094505050505092915050565b600080600060608486031215610cba57600080fd5b8335925060208401359150604084013567ffffffffffffffff811115610cdf57600080fd5b610ceb86828701610c18565b9150509250925092565b600060208284031215610d0757600080fd5b5035919050565b80356001600160a01b0381168114610d2557600080fd5b919050565b801515811461096a57600080fd5b60008060408385031215610d4b57600080fd5b610d5483610d0e565b91506020830135610d6481610d2a565b809150509250929050565b600060208284031215610d8157600080fd5b610d8a82610d0e565b9392505050565b600080600060608486031215610da657600080fd5b83359250610db660208501610d0e565b9150604084013590509250925092565b60008060408385031215610dd957600080fd5b82359150610de960208401610d0e565b90509250929050565b60008060408385031215610e0557600080fd5b82359150602083013567ffffffffffffffff811115610e2357600080fd5b610e2f85828601610c18565b9150509250929050565b602080825260169082015275145a50985b9ace88139bdd08185d5d1a1bdc9a5e995960521b604082015260600190565b634e487b7160e01b600052601160045260246000fd5b80820180821115610e9257610e92610e69565b92915050565b81810381811115610e9257610e92610e69565b82815260006020604081840152835180604085015260005b81811015610edf57858101830151858201606001528201610ec3565b506000606082860101526060601f19601f830116850101925050509392505050565b60208082526025908201527f516942616e6b3a20416d6f756e74206d75737420626520677265617465722074604082015264068616e20360dc1b606082015260800190565b600060208284031215610f5857600080fd5b8151610d8a81610d2a565b600060208284031215610f7557600080fd5b505191905056fea2646970667358221220f7d4071be24c17e16ba2f8d43f54158a75c249ed0650000f8fabec7f056a1a5a64736f6c63430008140033",
  "linkReferences": {},
  "deployedLinkReferences": {}
}