{
  "_format": "hh-sol-artifact-1",
  "contractName": "QIToken",
  "sourceName": "contracts/core/QIToken.sol",
  "abi": [
    {
      "inputs": [],
      "stateMutability": "nonpayable",
      "type": "constructor"
    },
    {
      "inputs": [
        {
          "internalType": "address",
          "name": "spender",
          "type": "address"
        },
        {
          "internalType": "uint256",
          "name": "allowance",
          "type": "uint256"
        },
        {
          "internalType": "uint256",
          "name": "needed",
          "type": "uint256"
        }
      ],
      "name": "ERC20InsufficientAllowance",
      "type": "error"
    },
    {
      "inputs": [
        {
          "internalType": "address",
          "name": "sender",
          "type": "address"
        },
        {
          "internalType": "uint256",
          "name": "balance",
          "type": "uint256"
        },
        {
          "internalType": "uint256",
          "name": "needed",
          "type": "uint256"
        }
      ],
      "name": "ERC20InsufficientBalance",
      "type": "error"
    },
    {
      "inputs": [
        {
          "internalType": "address",
          "name": "approver",
          "type": "address"
        }
      ],
      "name": "ERC20InvalidApprover",
      "type": "error"
    },
    {
      "inputs": [
        {
          "internalType": "address",
          "name": "receiver",
          "type": "address"
        }
      ],
      "name": "ERC20InvalidReceiver",
      "type": "error"
    },
    {
      "inputs": [
        {
          "internalType": "address",
          "name": "sender",
          "type": "address"
        }
      ],
      "name": "ERC20InvalidSender",
      "type": "error"
    },
    {
      "inputs": [
        {
          "internalType": "address",
          "name": "spender",
          "type": "address"
        }
      ],
      "name": "ERC20InvalidSpender",
      "type": "error"
    },
    {
      "inputs": [
        {
          "internalType": "address",
          "name": "owner",
          "type": "address"
        }
      ],
      "name": "OwnableInvalidOwner",
      "type": "error"
    },
    {
      "inputs": [
        {
          "internalType": "address",
          "name": "account",
          "type": "address"
        }
      ],
      "name": "OwnableUnauthorizedAccount",
      "type": "error"
    },
    {
      "anonymous": false,
      "inputs": [
        {
          "indexed": true,
          "internalType": "address",
          "name": "owner",
          "type": "address"
        },
        {
          "indexed": true,
          "internalType": "address",
          "name": "spender",
          "type": "address"
        },
        {
          "indexed": false,
          "internalType": "uint256",
          "name": "value",
          "type": "uint256"
        }
      ],
      "name": "Approval",
      "type": "event"
    },
    {
      "anonymous": false,
      "inputs": [
        {
          "indexed": true,
          "internalType": "address",
          "name": "previousOwner",
          "type": "address"
        },
        {
          "indexed": true,
          "internalType": "address",
          "name": "newOwner",
          "type": "address"
        }
      ],
      "name": "OwnershipTransferred",
      "type": "event"
    },
    {
      "anonymous": false,
      "inputs": [
        {
          "indexed": true,
          "internalType": "address",
          "name": "spender",
          "type": "address"
        },
        {
          "indexed": false,
          "internalType": "bool",
          "name": "authorized",
          "type": "bool"
        }
      ],
      "name": "SpenderAuthorized",
      "type": "event"
    },
    {
      "anonymous": false,
      "inputs": [
        {
          "indexed": true,
          "internalType": "address",
          "name": "from",
          "type": "address"
        },
        {
          "indexed": false,
          "internalType": "uint256",
          "name": "amount",
          "type": "uint256"
        }
      ],
      "name": "TokensBurned",
      "type": "event"
    },
    {
      "anonymous": false,
      "inputs": [
        {
          "indexed": true,
          "internalType": "address",
          "name": "from",
          "type": "address"
        },
        {
          "indexed": true,
          "internalType": "address",
          "name": "spender",
          "type": "address"
        },
        {
          "indexed": false,
          "internalType": "uint256",
          "name": "amount",
          "type": "uint256"
        }
      ],
      "name": "TokensSpent",
      "type": "event"
    },
    {
      "anonymous": false,
      "inputs": [
        {
          "indexed": true,
          "internalType": "address",
          "name": "from",
          "type": "address"
        },
        {
          "indexed": true,
          "internalType": "address",
          "name": "to",
          "type": "address"
        },
        {
          "indexed": false,
          "internalType": "uint256",
          "name": "value",
          "type": "uint256"
        }
      ],
      "name": "Transfer",
      "type": "event"
    },
    {
      "inputs": [],
      "name": "INITIAL_SUPPLY",
      "outputs": [
        {
          "internalType": "uint256",
          "name": "",
          "type": "uint256"
        }
      ],
      "stateMutability": "view",
      "type": "function"
    },
    {
      "inputs": [
        {
          "internalType": "address",
          "name": "owner",
          "type": "address"
        },
        {
          "internalType": "address",
          "name": "spender",
          "type": "address"
        }
      ],
      "name": "allowance",
      "outputs": [
        {
          "internalType": "uint256",
          "name": "",
          "type": "uint256"
        }
      ],
      "stateMutability": "view",
      "type": "function"
    },
    {
      "inputs": [
        {
          "internalType": "address",
          "name": "spender",
          "type": "address"
        },
        {
          "internalType": "uint256",
          "name": "value",
          "type": "uint256"
        }
      ],
      "name": "approve",
      "outputs": [
        {
          "internalType": "bool",
          "name": "",
          "type": "bool"
        }
      ],
      "stateMutability": "nonpayable",
      "type": "function"
    },
    {
      "inputs": [
        {
          "internalType": "address",
          "name": "",
          "type": "address"
        }
      ],
      "name": "authorizedSpenders",
      "outputs": [
        {
          "internalType": "bool",
          "name": "",
          "type": "bool"
        }
      ],
      "stateMutability": "view",
      "type": "function"
    },
    {
      "inputs": [
        {
          "internalType": "address",
          "name": "account",
          "type": "address"
        }
      ],
      "name": "balanceOf",
      "outputs": [
        {
          "internalType": "uint256",
          "name": "",
          "type": "uint256"
        }
      ],
      "stateMutability": "view",
      "type": "function"
    },
    {
      "inputs": [
        {
          "internalType": "uint256",
          "name": "amount",
          "type": "uint256"
        }
      ],
      "name": "burn",
      "outputs": [],
      "stateMutability": "nonpayable",
      "type": "function"
    },
    {
      "inputs": [],
      "name": "decimals",
      "outputs": [
        {
          "internalType": "uint8",
          "name": "",
          "type": "uint8"
        }
      ],
      "stateMutability": "view",
      "type": "function"
    },
    {
      "inputs": [
        {
          "internalType": "address",
          "name": "to",
          "type": "address"
        },
        {
          "internalType": "uint256",
          "name": "amount",
          "type": "uint256"
        }
      ],
      "name": "mint",
      "outputs": [],
      "stateMutability": "nonpayable",
      "type": "function"
    },
    {
      "inputs": [],
      "name": "name",
      "outputs": [
        {
          "internalType": "string",
          "name": "",
          "type": "string"
        }
      ],
      "stateMutability": "view",
      "type": "function"
    },
    {
      "inputs": [],
      "name": "owner",
      "outputs": [
        {
          "internalType": "address",
          "name": "",
          "type": "address"
        }
      ],
      "stateMutability": "view",
      "type": "function"
    },
    {
      "inputs": [],
      "name": "renounceOwnership",
      "outputs": [],
      "stateMutability": "nonpayable",
      "type": "function"
    },
    {
      "inputs": [
        {
          "internalType": "address",
          "name": "spender",
          "type": "address"
        },
        {
          "internalType": "bool",
          "name": "authorized",
          "type": "bool"
        }
      ],
      "name": "setAuthorizedSpender",
      "outputs": [],
      "stateMutability": "nonpayable",
      "type": "function"
    },
    {
      "inputs": [
        {
          "internalType": "address",
          "name": "from",
          "type": "address"
        },
        {
          "internalType": "uint256",
          "name": "amount",
          "type": "uint256"
        }
      ],
      "name": "spend",
      "outputs": [],
      "stateMutability": "nonpayable",
      "type": "function"
    },
    {
      "inputs": [],
      "name": "symbol",
      "outputs": [
        {
          "internalType": "string",
          "name": "",
          "type": "string"
        }
      ],
      "stateMutability": "view",
      "type": "function"
    },
    {
      "inputs": [],
      "name": "totalSupply",
      "outputs": [
        {
          "internalType": "uint256",
          "name": "",
          "type": "uint256"
        }
      ],
      "stateMutability": "view",
      "type": "function"
    },
    {
      "inputs": [
        {
          "internalType": "address",
          "name": "to",
          "type": "address"
        },
        {
          "internalType": "uint256",
          "name": "value",
          "type": "uint256"
        }
      ],
      "name": "transfer",
      "outputs": [
        {
          "internalType": "bool",
          "name": "",
          "type": "bool"
        }
      ],
      "stateMutability": "nonpayable",
      "type": "function"
    },
    {
      "inputs": [
        {
          "internalType": "address",
          "name": "from",
          "type": "address"
        },
        {
          "internalType": "address",
          "name": "to",
          "type": "address"
        },
        {
          "internalType": "uint256",
          "name": "value",
          "type": "uint256"
        }
      ],
      "name": "transferFrom",
      "outputs": [
        {
          "internalType": "bool",
          "name": "",
          "type": "bool"
        }
      ],
      "stateMutability": "nonpayable",
      "type": "function"
    },
    {
      "inputs": [
        {
          "internalType": "address",
          "name": "newOwner",
          "type": "address"
        }
      ],
      "name": "transferOwnership",
      "outputs": [],
      "stateMutability": "nonpayable",
      "type": "function"
    }
  ],
  "bytecode": "0x60806040523480156200001157600080fd5b50336040518060400160405280600881526020016728a4902a37b5b2b760c11b81525060405180604001604052806002815260200161514960f01b815250816003908162000060919062000334565b5060046200006f828262000334565b5050506001600160a01b038116620000a257604051631e4fbdf760e01b8152600060048201526024015b60405180910390fd5b620000ad81620000cc565b50620000c6336b033b2e3c9fd0803ce80000006200011e565b62000428565b600580546001600160a01b038381166001600160a01b0319831681179093556040519116919082907f8be0079c531659141344cd1fd0a4f28419497f9722a3daafe3b4186f6b6457e090600090a35050565b6001600160a01b0382166200014a5760405163ec442f0560e01b81526000600482015260240162000099565b62000158600083836200015c565b5050565b6001600160a01b0383166200018b5780600260008282546200017f919062000400565b90915550620001ff9050565b6001600160a01b03831660009081526020819052604090205481811015620001e05760405163391434e360e21b81526001600160a01b0385166004820152602481018290526044810183905260640162000099565b6001600160a01b03841660009081526020819052604090209082900390555b6001600160a01b0382166200021d576002805482900390556200023c565b6001600160a01b03821660009081526020819052604090208054820190555b816001600160a01b0316836001600160a01b03167fddf252ad1be2c89b69c2b068fc378daa952ba7f163c4a11628f55a4df523b3ef836040516200028291815260200190565b60405180910390a3505050565b634e487b7160e01b600052604160045260246000fd5b600181811c90821680620002ba57607f821691505b602082108103620002db57634e487b7160e01b600052602260045260246000fd5b50919050565b601f8211156200032f57600081815260208120601f850160051c810160208610156200030a5750805b601f850160051c820191505b818110156200032b5782815560010162000316565b5050505b505050565b81516001600160401b038111156200035057620003506200028f565b6200036881620003618454620002a5565b84620002e1565b602080601f831160018114620003a05760008415620003875750858301515b600019600386901b1c1916600185901b1785556200032b565b600085815260208120601f198616915b82811015620003d157888601518255948401946001909101908401620003b0565b5085821015620003f05787850151600019600388901b60f8161c191681555b5050505050600190811b01905550565b808201808211156200042257634e487b7160e01b600052601160045260246000fd5b92915050565b610bbc80620004386000396000f3fe608060405234801561001057600080fd5b50600436106101165760003560e01c806370a08231116100a2578063a9059cbb11610071578063a9059cbb14610232578063af7d6ca314610245578063d2454e8d14610258578063dd62ed3e1461027b578063f2fde38b146102b457600080fd5b806370a08231146101de578063715018a6146102075780638da5cb5b1461020f57806395d89b411461022a57600080fd5b806323b872dd116100e957806323b872dd146101835780632ff2e9dc14610196578063313ce567146101a957806340c10f19146101b857806342966c68146101cb57600080fd5b8063042f1ba71461011b57806306fdde0314610130578063095ea7b31461014e57806318160ddd14610171575b600080fd5b61012e6101293660046109cd565b6102c7565b005b61013861032e565b6040516101459190610a09565b60405180910390f35b61016161015c366004610a57565b6103c0565b6040519015158152602001610145565b6002545b604051908152602001610145565b610161610191366004610a81565b6103da565b6101756b033b2e3c9fd0803ce800000081565b60405160128152602001610145565b61012e6101c6366004610a57565b6103fe565b61012e6101d9366004610abd565b610414565b6101756101ec366004610ad6565b6001600160a01b031660009081526020819052604090205490565b61012e6104ba565b6005546040516001600160a01b039091168152602001610145565b6101386104ce565b610161610240366004610a57565b6104dd565b61012e610253366004610a57565b6104eb565b610161610266366004610ad6565b60066020526000908152604090205460ff1681565b610175610289366004610af8565b6001600160a01b03918216600090815260016020908152604080832093909416825291909152205490565b61012e6102c2366004610ad6565b610599565b6102cf6105d7565b6001600160a01b038216600081815260066020908152604091829020805460ff191685151590811790915591519182527fae147a7c9fb958af671f40fcdd8c9317dd78c17d572aeb8fb41010846c4a45c8910160405180910390a25050565b60606003805461033d90610b2b565b80601f016020809104026020016040519081016040528092919081815260200182805461036990610b2b565b80156103b65780601f1061038b576101008083540402835291602001916103b6565b820191906000526020600020905b81548152906001019060200180831161039957829003601f168201915b5050505050905090565b6000336103ce818585610604565b60019150505b92915050565b6000336103e8858285610616565b6103f3858585610695565b506001949350505050565b6104066105d7565b61041082826106f4565b5050565b3360009081526006602052604090205460ff166104785760405162461bcd60e51b815260206004820152601f60248201527f5149546f6b656e3a204e6f7420617574686f72697a6564207370656e6465720060448201526064015b60405180910390fd5b610482308261072a565b60405181815233907ffd38818f5291bf0bb3a2a48aadc06ba8757865d1dabd804585338aab3009dcb69060200160405180910390a250565b6104c26105d7565b6104cc6000610760565b565b60606004805461033d90610b2b565b6000336103ce818585610695565b3360009081526006602052604090205460ff1661054a5760405162461bcd60e51b815260206004820152601f60248201527f5149546f6b656e3a204e6f7420617574686f72697a6564207370656e64657200604482015260640161046f565b610555823083610695565b60405181815233906001600160a01b038416907fa4b49b2df0863c10933dad660aa6409609b49b4c75582e11efcb75bbf8d6c23f9060200160405180910390a35050565b6105a16105d7565b6001600160a01b0381166105cb57604051631e4fbdf760e01b81526000600482015260240161046f565b6105d481610760565b50565b6005546001600160a01b031633146104cc5760405163118cdaa760e01b815233600482015260240161046f565b61061183838360016107b2565b505050565b6001600160a01b0383811660009081526001602090815260408083209386168352929052205460001981101561068f578181101561068057604051637dc7a0d960e11b81526001600160a01b0384166004820152602481018290526044810183905260640161046f565b61068f848484840360006107b2565b50505050565b6001600160a01b0383166106bf57604051634b637e8f60e11b81526000600482015260240161046f565b6001600160a01b0382166106e95760405163ec442f0560e01b81526000600482015260240161046f565b610611838383610887565b6001600160a01b03821661071e5760405163ec442f0560e01b81526000600482015260240161046f565b61041060008383610887565b6001600160a01b03821661075457604051634b637e8f60e11b81526000600482015260240161046f565b61041082600083610887565b600580546001600160a01b038381166001600160a01b0319831681179093556040519116919082907f8be0079c531659141344cd1fd0a4f28419497f9722a3daafe3b4186f6b6457e090600090a35050565b6001600160a01b0384166107dc5760405163e602df0560e01b81526000600482015260240161046f565b6001600160a01b03831661080657604051634a1406b160e11b81526000600482015260240161046f565b6001600160a01b038085166000908152600160209081526040808320938716835292905220829055801561068f57826001600160a01b0316846001600160a01b03167f8c5be1e5ebec7d5bd14f71427d1e84f3dd0314c0f7b2291e5b200ac8c7c3b9258460405161087991815260200190565b60405180910390a350505050565b6001600160a01b0383166108b25780600260008282546108a79190610b65565b909155506109249050565b6001600160a01b038316600090815260208190526040902054818110156109055760405163391434e360e21b81526001600160a01b0385166004820152602481018290526044810183905260640161046f565b6001600160a01b03841660009081526020819052604090209082900390555b6001600160a01b0382166109405760028054829003905561095f565b6001600160a01b03821660009081526020819052604090208054820190555b816001600160a01b0316836001600160a01b03167fddf252ad1be2c89b69c2b068fc378daa952ba7f163c4a11628f55a4df523b3ef836040516109a491815260200190565b60405180910390a3505050565b80356001600160a01b03811681146109c857600080fd5b919050565b600080604083850312156109e057600080fd5b6109e9836109b1565b9150602083013580151581146109fe57600080fd5b809150509250929050565b600060208083528351808285015260005b81811015610a3657858101830151858201604001528201610a1a565b506000604082860101526040601f19601f8301168501019250505092915050565b60008060408385031215610a6a57600080fd5b610a73836109b1565b946020939093013593505050565b600080600060608486031215610a9657600080fd5b610a9f846109b1565b9250610aad602085016109b1565b9150604084013590509250925092565b600060208284031215610acf57600080fd5b5035919050565b600060208284031215610ae857600080fd5b610af1826109b1565b9392505050565b60008060408385031215610b0b57600080fd5b610b14836109b1565b9150610b22602084016109b1565b90509250929050565b600181811c90821680610b3f57607f821691505b602082108103610b5f57634e487b7160e01b600052602260045260246000fd5b50919050565b808201808211156103d457634e487b7160e01b600052601160045260246000fdfea26469706673582212205351da7adcad3dac480a8fe50382a85766f8eeca50de2f544c7532bf0f5d15eb64736f6c63430008140033",
  "linkReferences": {},
  "deployedLinkReferences": {}
}