{
  "_format": "hh-sol-artifact-1",
  "contractName": "TaskManager",
  "sourceName": "contracts/core/TaskManager.sol",
  "abi": [
    {
      "inputs": [
        {
          "internalType": "address",
          "name": "_logosRegistry",
          "type": "address"
        },
        {
          "internalType": "address",
          "name": "_qiBank",
          "type": "address"
        }
      ],
      "stateMutability": "nonpayable",
      "type": "constructor"
    },
    {
      "inputs": [],
      "name": "EnforcedPause",
      "type": "error"
    },
    {
      "inputs": [],
      "name": "ExpectedPause",
      "type": "error"
    },
    {
      "inputs": [
        {
          "internalType": "address",
          "name": "owner",
          "type": "address"
        }
      ],
      "name": "OwnableInvalidOwner",
      "type": "error"
    },
    {
      "inputs": [
        {
          "internalType": "address",
          "name": "account",
          "type": "address"
        }
      ],
      "name": "OwnableUnauthorizedAccount",
      "type": "error"
    },
    {
      "inputs": [],
      "name": "ReentrancyGuardReentrantCall",
      "type": "error"
    },
    {
      "anonymous": false,
      "inputs": [
        {
          "indexed": true,
          "internalType": "uint256",
          "name": "taskId",
          "type": "uint256"
        },
        {
          "indexed": true,
          "internalType": "address",
          "name": "recipient",
          "type": "address"
        },
        {
          "indexed": false,
          "internalType": "uint256",
          "name": "amount",
          "type": "uint256"
        }
      ],
      "name": "BountyClaimed",
      "type": "event"
    },
    {
      "anonymous": false,
      "inputs": [
        {
          "indexed": true,
          "internalType": "address",
          "name": "previousOwner",
          "type": "address"
        },
        {
          "indexed": true,
          "internalType": "address",
          "name": "newOwner",
          "type": "address"
        }
      ],
      "name": "OwnershipTransferred",
      "type": "event"
    },
    {
      "anonymous": false,
      "inputs": [
        {
          "indexed": false,
          "internalType": "address",
          "name": "account",
          "type": "address"
        }
      ],
      "name": "Paused",
      "type": "event"
    },
    {
      "anonymous": false,
      "inputs": [
        {
          "indexed": false,
          "internalType": "uint256",
          "name": "newFeePercent",
          "type": "uint256"
        }
      ],
      "name": "PlatformFeeUpdated",
      "type": "event"
    },
    {
      "anonymous": false,
      "inputs": [
        {
          "indexed": true,
          "internalType": "uint256",
          "name": "taskId",
          "type": "uint256"
        },
        {
          "indexed": true,
          "internalType": "uint256",
          "name": "logosId",
          "type": "uint256"
        }
      ],
      "name": "TaskAssigned",
      "type": "event"
    },
    {
      "anonymous": false,
      "inputs": [
        {
          "indexed": true,
          "internalType": "uint256",
          "name": "taskId",
          "type": "uint256"
        }
      ],
      "name": "TaskCancelled",
      "type": "event"
    },
    {
      "anonymous": false,
      "inputs": [
        {
          "indexed": true,
          "internalType": "uint256",
          "name": "taskId",
          "type": "uint256"
        },
        {
          "indexed": true,
          "internalType": "address",
          "name": "creator",
          "type": "address"
        },
        {
          "indexed": false,
          "internalType": "uint256",
          "name": "bounty",
          "type": "uint256"
        },
        {
          "indexed": false,
          "internalType": "uint256",
          "name": "qiBudget",
          "type": "uint256"
        }
      ],
      "name": "TaskCreated",
      "type": "event"
    },
    {
      "anonymous": false,
      "inputs": [
        {
          "indexed": true,
          "internalType": "uint256",
          "name": "taskId",
          "type": "uint256"
        },
        {
          "indexed": false,
          "internalType": "string",
          "name": "resultIPFS",
          "type": "string"
        }
      ],
      "name": "TaskFulfilled",
      "type": "event"
    },
    {
      "anonymous": false,
      "inputs": [
        {
          "indexed": false,
          "internalType": "address",
          "name": "account",
          "type": "address"
        }
      ],
      "name": "Unpaused",
      "type": "event"
    },
    {
      "inputs": [],
      "name": "MAX_BOUNTY",
      "outputs": [
        {
          "internalType": "uint256",
          "name": "",
          "type": "uint256"
        }
      ],
      "stateMutability": "view",
      "type": "function"
    },
    {
      "inputs": [],
      "name": "MIN_BOUNTY",
      "outputs": [
        {
          "internalType": "uint256",
          "name": "",
          "type": "uint256"
        }
      ],
      "stateMutability": "view",
      "type": "function"
    },
    {
      "inputs": [
        {
          "internalType": "uint256",
          "name": "taskId",
          "type": "uint256"
        },
        {
          "internalType": "uint256",
          "name": "logosId",
          "type": "uint256"
        }
      ],
      "name": "assignTask",
      "outputs": [],
      "stateMutability": "nonpayable",
      "type": "function"
    },
    {
      "inputs": [
        {
          "internalType": "address",
          "name": "",
          "type": "address"
        }
      ],
      "name": "authorizedCallers",
      "outputs": [
        {
          "internalType": "bool",
          "name": "",
          "type": "bool"
        }
      ],
      "stateMutability": "view",
      "type": "function"
    },
    {
      "inputs": [
        {
          "internalType": "uint256",
          "name": "taskId",
          "type": "uint256"
        }
      ],
      "name": "cancelTask",
      "outputs": [],
      "stateMutability": "nonpayable",
      "type": "function"
    },
    {
      "inputs": [
        {
          "internalType": "uint256",
          "name": "taskId",
          "type": "uint256"
        }
      ],
      "name": "claimBounty",
      "outputs": [],
      "stateMutability": "nonpayable",
      "type": "function"
    },
    {
      "inputs": [
        {
          "internalType": "string",
          "name": "description",
          "type": "string"
        },
        {
          "internalType": "uint256",
          "name": "qiBudget",
          "type": "uint256"
        },
        {
          "internalType": "uint256",
          "name": "deadline",
          "type": "uint256"
        }
      ],
      "name": "createTask",
      "outputs": [
        {
          "internalType": "uint256",
          "name": "",
          "type": "uint256"
        }
      ],
      "stateMutability": "payable",
      "type": "function"
    },
    {
      "inputs": [
        {
          "internalType": "uint256",
          "name": "taskId",
          "type": "uint256"
        },
        {
          "internalType": "string",
          "name": "resultIPFS",
          "type": "string"
        }
      ],
      "name": "fulfillTask",
      "outputs": [],
      "stateMutability": "nonpayable",
      "type": "function"
    },
    {
      "inputs": [
        {
          "internalType": "uint256",
          "name": "logosId",
          "type": "uint256"
        }
      ],
      "name": "getLogosTasks",
      "outputs": [
        {
          "internalType": "uint256[]",
          "name": "",
          "type": "uint256[]"
        }
      ],
      "stateMutability": "view",
      "type": "function"
    },
    {
      "inputs": [
        {
          "internalType": "uint256",
          "name": "taskId",
          "type": "uint256"
        }
      ],
      "name": "getTask",
      "outputs": [
        {
          "components": [
            {
              "internalType": "uint256",
              "name": "taskId",
              "type": "uint256"
            },
            {
              "internalType": "address",
              "name": "creator",
              "type": "address"
            },
            {
              "internalType": "uint256",
              "name": "assignedLOGOS",
              "type": "uint256"
            },
            {
              "internalType": "string",
              "name": "description",
              "type": "string"
            },
            {
              "internalType": "uint256",
              "name": "bountyAmount",
              "type": "uint256"
            },
            {
              "internalType": "uint256",
              "name": "qiBudget",
              "type": "uint256"
            },
            {
              "internalType": "enum TaskManager.TaskStatus",
              "name": "status",
              "type": "uint8"
            },
            {
              "internalType": "uint256",
              "name": "createdAt",
              "type": "uint256"
            },
            {
              "internalType": "uint256",
              "name": "deadline",
              "type": "uint256"
            },
            {
              "internalType": "string",
              "name": "resultIPFS",
              "type": "string"
            }
          ],
          "internalType": "struct TaskManager.Task",
          "name": "",
          "type": "tuple"
        }
      ],
      "stateMutability": "view",
      "type": "function"
    },
    {
      "inputs": [
        {
          "internalType": "address",
          "name": "user",
          "type": "address"
        }
      ],
      "name": "getUserTasks",
      "outputs": [
        {
          "internalType": "uint256[]",
          "name": "",
          "type": "uint256[]"
        }
      ],
      "stateMutability": "view",
      "type": "function"
    },
    {
      "inputs": [],
      "name": "logosRegistry",
      "outputs": [
        {
          "internalType": "contract LogosRegistry",
          "name": "",
          "type": "address"
        }
      ],
      "stateMutability": "view",
      "type": "function"
    },
    {
      "inputs": [
        {
          "internalType": "uint256",
          "name": "",
          "type": "uint256"
        },
        {
          "internalType": "uint256",
          "name": "",
          "type": "uint256"
        }
      ],
      "name": "logosTasks",
      "outputs": [
        {
          "internalType": "uint256",
          "name": "",
          "type": "uint256"
        }
      ],
      "stateMutability": "view",
      "type": "function"
    },
    {
      "inputs": [],
      "name": "owner",
      "outputs": [
        {
          "internalType": "address",
          "name": "",
          "type": "address"
        }
      ],
      "stateMutability": "view",
      "type": "function"
    },
    {
      "inputs": [],
      "name": "pause",
      "outputs": [],
      "stateMutability": "nonpayable",
      "type": "function"
    },
    {
      "inputs": [],
      "name": "paused",
      "outputs": [
        {
          "internalType": "bool",
          "name": "",
          "type": "bool"
        }
      ],
      "stateMutability": "view",
      "type": "function"
    },
    {
      "inputs": [],
      "name": "platformFeePercent",
      "outputs": [
        {
          "internalType": "uint256",
          "name": "",
          "type": "uint256"
        }
      ],
      "stateMutability": "view",
      "type": "function"
    },
    {
      "inputs": [],
      "name": "qiBank",
      "outputs": [
        {
          "internalType": "contract QiBank",
          "name": "",
          "type": "address"
        }
      ],
      "stateMutability": "view",
      "type": "function"
    },
    {
      "inputs": [],
      "name": "renounceOwnership",
      "outputs": [],
      "stateMutability": "nonpayable",
      "type": "function"
    },
    {
      "inputs": [
        {
          "internalType": "address",
          "name": "caller",
          "type": "address"
        },
        {
          "internalType": "bool",
          "name": "authorized",
          "type": "bool"
        }
      ],
      "name": "setAuthorizedCaller",
      "outputs": [],
      "stateMutability": "nonpayable",
      "type": "function"
    },
    {
      "inputs": [
        {
          "internalType": "uint256",
          "name": "newFeePercent",
          "type": "uint256"
        }
      ],
      "name": "setPlatformFee",
      "outputs": [],
      "stateMutability": "nonpayable",
      "type": "function"
    },
    {
      "inputs": [
        {
          "internalType": "uint256",
          "name": "",
          "type": "uint256"
        }
      ],
      "name": "tasks",
      "outputs": [
        {
          "internalType": "uint256",
          "name": "taskId",
          "type": "uint256"
        },
        {
          "internalType": "address",
          "name": "creator",
          "type": "address"
        },
        {
          "internalType": "uint256",
          "name": "assignedLOGOS",
          "type": "uint256"
        },
        {
          "internalType": "string",
          "name": "description",
          "type": "string"
        },
        {
          "internalType": "uint256",
          "name": "bountyAmount",
          "type": "uint256"
        },
        {
          "internalType": "uint256",
          "name": "qiBudget",
          "type": "uint256"
        },
        {
          "internalType": "enum TaskManager.TaskStatus",
          "name": "status",
          "type": "uint8"
        },
        {
          "internalType": "uint256",
          "name": "createdAt",
          "type": "uint256"
        },
        {
          "internalType": "uint256",
          "name": "deadline",
          "type": "uint256"
        },
        {
          "internalType": "string",
          "name": "resultIPFS",
          "type": "string"
        }
      ],
      "stateMutability": "view",
      "type": "function"
    },
    {
      "inputs": [
        {
          "internalType": "address",
          "name": "newOwner",
          "type": "address"
        }
      ],
      "name": "transferOwnership",
      "outputs": [],
      "stateMutability": "nonpayable",
      "type": "function"
    },
    {
      "inputs": [],
      "name": "unpause",
      "outputs": [],
      "stateMutability": "nonpayable",
      "type": "function"
    },
    {
      "inputs": [
        {
          "internalType": "address",
          "name": "",
          "type": "address"
        },
        {
          "internalType": "uint256",
          "name": "",
          "type": "uint256"
        }
      ],
      "name": "userTasks",
      "outputs": [
        {
          "internalType": "uint256",
          "name": "",
          "type": "uint256"
        }
      ],
      "stateMutability": "view",
      "type": "function"
    },
    {
      "stateMutability": "payable",
      "type": "receive"
    }
  ],
  "bytecode": "0x60c060405260056003553480156200001657600080fd5b50604051620024f1380380620024f18339810160408190526200003991620001b1565b600160005533806200006657604051631e4fbdf760e01b8152600060048201526024015b60405180910390fd5b62000071816200013a565b506001600160a01b038216620000ca5760405162461bcd60e51b815260206004820152601d60248201527f5461736b4d616e616765723a20496e76616c696420726567697374727900000060448201526064016200005d565b6001600160a01b038116620001225760405162461bcd60e51b815260206004820152601b60248201527f5461736b4d616e616765723a20496e76616c696420516942616e6b000000000060448201526064016200005d565b6001600160a01b039182166080521660a052620001e9565b600180546001600160a01b03838116610100818102610100600160a81b031985161790945560405193909204169182907f8be0079c531659141344cd1fd0a4f28419497f9722a3daafe3b4186f6b6457e090600090a35050565b80516001600160a01b0381168114620001ac57600080fd5b919050565b60008060408385031215620001c557600080fd5b620001d08362000194565b9150620001e06020840162000194565b90509250929050565b60805160a0516122bf6200023260003960008181610497015281816108d101526115510152600081816103bc015281816105ec015281816110a7015261115b01526122bf6000f3fe60806040526004361061016a5760003560e01c806366873a55116100d15780638c639a851161008a57806395d576601161006457806395d5766014610465578063c208582d14610485578063ee62cc01146104b9578063f2fde38b146104d557600080fd5b80638c639a85146103f65780638d9776721461040c5780638da5cb5b1461044257600080fd5b806366873a55146103205780636c4fbb9d14610340578063715018a6146103605780637eec20a8146103755780638456cb591461039557806387207c26146103aa57600080fd5b80633c7d306c116101235780633c7d306c146102465780633f4ba83a1461027357806344021ad714610288578063454bbd29146102a8578063536fff6c146102c85780635c975abb1461030857600080fd5b806301612c4014610176578063059378ea1461019857806310e8c389146101be57806312e8e2c3146101de5780631307e576146101fe5780631d65e77e1461021957600080fd5b3661017157005b600080fd5b34801561018257600080fd5b50610196610191366004611aaa565b6104f5565b005b6101ab6101a6366004611bbb565b61071f565b6040519081526020015b60405180910390f35b3480156101ca57600080fd5b506101966101d9366004611c09565b610ade565b3480156101ea57600080fd5b506101966101f9366004611c50565b610c69565b34801561020a57600080fd5b506101ab66038d7ea4c6800081565b34801561022557600080fd5b50610239610234366004611c50565b610cfd565b6040516101b59190611cf1565b34801561025257600080fd5b50610266610261366004611c50565b610ed3565b6040516101b59190611da6565b34801561027f57600080fd5b50610196610f35565b34801561029457600080fd5b506101966102a3366004611c50565b610f47565b3480156102b457600080fd5b506101966102c3366004611e0d565b611383565b3480156102d457600080fd5b506102f86102e3366004611e46565b60076020526000908152604090205460ff1681565b60405190151581526020016101b5565b34801561031457600080fd5b5060015460ff166102f8565b34801561032c57600080fd5b506101ab61033b366004611e63565b6113b6565b34801561034c57600080fd5b506101ab61035b366004611aaa565b6113e7565b34801561036c57600080fd5b50610196611403565b34801561038157600080fd5b50610196610390366004611c50565b611415565b3480156103a157600080fd5b50610196611687565b3480156103b657600080fd5b506103de7f000000000000000000000000000000000000000000000000000000000000000081565b6040516001600160a01b0390911681526020016101b5565b34801561040257600080fd5b506101ab60035481565b34801561041857600080fd5b5061042c610427366004611c50565b611697565b6040516101b59a99989796959493929190611e8f565b34801561044e57600080fd5b5060015461010090046001600160a01b03166103de565b34801561047157600080fd5b50610266610480366004611e46565b61180d565b34801561049157600080fd5b506103de7f000000000000000000000000000000000000000000000000000000000000000081565b3480156104c557600080fd5b506101ab678ac7230489e8000081565b3480156104e157600080fd5b506101966104f0366004611e46565b611877565b3360009081526007602052604090205460ff1680610534575060015461010090046001600160a01b03166001600160a01b0316336001600160a01b0316145b6105595760405162461bcd60e51b815260040161055090611f0d565b60405180910390fd5b6105616118b2565b600082815260046020526040812090600682015460ff16600481111561058957610589611cb9565b146105d65760405162461bcd60e51b815260206004820152601b60248201527f5461736b4d616e616765723a20496e76616c69642073746174757300000000006044820152606401610550565b604051632544d2cf60e01b8152600481018390527f00000000000000000000000000000000000000000000000000000000000000006001600160a01b031690632544d2cf90602401602060405180830381865afa15801561063b573d6000803e3d6000fd5b505050506040513d601f19601f8201168201806040525081019061065f9190611f54565b6106ab5760405162461bcd60e51b815260206004820152601b60248201527f5461736b4d616e616765723a204c4f474f5320696e61637469766500000000006044820152606401610550565b600281018290556006808201805460ff191660019081179091556000848152602092835260408082208054938401815582529281209091018590559051839185917f25e5c814bf9313a0efe86f97f5d6ad2921089c376aa35ab12fc2c495546755ee9190a35061071b6001600055565b5050565b60006107296118b2565b6107316118dc565b600084511161078c5760405162461bcd60e51b815260206004820152602160248201527f5461736b4d616e616765723a204465736372697074696f6e20726571756972656044820152601960fa1b6064820152608401610550565b66038d7ea4c6800034101580156107ab5750678ac7230489e800003411155b6107f75760405162461bcd60e51b815260206004820152601b60248201527f5461736b4d616e616765723a20496e76616c696420626f756e747900000000006044820152606401610550565b600083116108475760405162461bcd60e51b815260206004820152601f60248201527f5461736b4d616e616765723a20514920627564676574207265717569726564006044820152606401610550565b4282116108965760405162461bcd60e51b815260206004820152601d60248201527f5461736b4d616e616765723a20496e76616c696420646561646c696e650000006044820152606401610550565b600280549060006108a683611f87565b9091555050600254604051635729369b60e01b815260048101829052336024820152604481018590527f00000000000000000000000000000000000000000000000000000000000000006001600160a01b031690635729369b90606401600060405180830381600087803b15801561091d57600080fd5b505af1158015610931573d6000803e3d6000fd5b50505050604051806101400160405280828152602001336001600160a01b03168152602001600081526020018681526020013481526020018581526020016000600481111561098257610982611cb9565b81524260208083019190915260408083018790528051808301825260008082526060948501919091528581526004835281902084518155918401516001830180546001600160a01b0319166001600160a01b0390921691909117905583015160028201559082015160038201906109f99082612029565b506080820151816004015560a0820151816005015560c08201518160060160006101000a81548160ff02191690836004811115610a3857610a38611cb9565b021790555060e0820151600782015561010082015160088201556101208201516009820190610a679082612029565b5050336000818152600560209081526040808320805460018101825590845292829020909201859055815134815290810188905291925083917ff5ac772f880dc6ed6b50db24e062bbc51818e270ed47533fd9162e5255fa2913910160405180910390a39050610ad76001600055565b9392505050565b3360009081526007602052604090205460ff1680610b1d575060015461010090046001600160a01b03166001600160a01b0316336001600160a01b0316145b610b395760405162461bcd60e51b815260040161055090611f0d565b610b416118b2565b60008281526004602052604090206001600682015460ff166004811115610b6a57610b6a611cb9565b14610bb75760405162461bcd60e51b815260206004820152601b60248201527f5461736b4d616e616765723a20496e76616c69642073746174757300000000006044820152606401610550565b6000825111610c085760405162461bcd60e51b815260206004820152601c60248201527f5461736b4d616e616765723a20526573756c74207265717569726564000000006044820152606401610550565b60068101805460ff1916600217905560098101610c258382612029565b50827fcff9e96999fcf9c9f9b375280302e61c697b04b8683c8ad0e049b20abb22c2ca83604051610c5691906120e9565b60405180910390a25061071b6001600055565b610c71611900565b6014811115610cc25760405162461bcd60e51b815260206004820152601960248201527f5461736b4d616e616765723a2046656520746f6f2068696768000000000000006044820152606401610550565b60038190556040518181527f45610d581145924dd7090a5017e5f2b1d6f42213bb2e95707ff86846bbfcb1ca9060200160405180910390a150565b610d05611a3d565b6000828152600460209081526040918290208251610140810184528154815260018201546001600160a01b031692810192909252600281015492820192909252600382018054919291606084019190610d5d90611fa0565b80601f0160208091040260200160405190810160405280929190818152602001828054610d8990611fa0565b8015610dd65780601f10610dab57610100808354040283529160200191610dd6565b820191906000526020600020905b815481529060010190602001808311610db957829003601f168201915b5050509183525050600482810154602083015260058301546040830152600683015460609092019160ff1690811115610e1157610e11611cb9565b6004811115610e2257610e22611cb9565b81526020016007820154815260200160088201548152602001600982018054610e4a90611fa0565b80601f0160208091040260200160405190810160405280929190818152602001828054610e7690611fa0565b8015610ec35780601f10610e9857610100808354040283529160200191610ec3565b820191906000526020600020905b815481529060010190602001808311610ea657829003601f168201915b5050505050815250509050919050565b600081815260066020908152604091829020805483518184028101840190945280845260609392830182828015610f2957602002820191906000526020600020905b815481526020019060010190808311610f15575b50505050509050919050565b610f3d611900565b610f45611933565b565b3360009081526007602052604090205460ff1680610f86575060015461010090046001600160a01b03166001600160a01b0316336001600160a01b0316145b610fa25760405162461bcd60e51b815260040161055090611f0d565b610faa6118b2565b60008181526004602052604090206002600682015460ff166004811115610fd357610fd3611cb9565b146110205760405162461bcd60e51b815260206004820152601a60248201527f5461736b4d616e616765723a204e6f742066756c66696c6c65640000000000006044820152606401610550565b600081600401541161106d5760405162461bcd60e51b81526020600482015260166024820152755461736b4d616e616765723a204e6f20626f756e747960501b6044820152606401610550565b60006064600354836004015461108391906120fc565b61108d9190612119565b905060008183600401546110a1919061213b565b905060007f00000000000000000000000000000000000000000000000000000000000000006001600160a01b031663c4b22f0d85600201546040518263ffffffff1660e01b81526004016110f791815260200190565b600060405180830381865afa158015611114573d6000803e3d6000fd5b505050506040513d6000823e601f3d908101601f1916820160405261113c91908101906121a6565b60028501546040516303abb10160e11b81529192506001600160a01b037f00000000000000000000000000000000000000000000000000000000000000001691630757620291611199918690600401918252602082015260400190565b600060405180830381600087803b1580156111b357600080fd5b505af11580156111c7573d6000803e3d6000fd5b505060006004870155505082156112825760015460405160009161010090046001600160a01b03169085908381818185875af1925050503d806000811461122a576040519150601f19603f3d011682016040523d82523d6000602084013e61122f565b606091505b50509050806112805760405162461bcd60e51b815260206004820181905260248201527f5461736b4d616e616765723a20466565207472616e73666572206661696c65646044820152606401610550565b505b600081602001516001600160a01b03168360405160006040518083038185875af1925050503d80600081146112d3576040519150601f19603f3d011682016040523d82523d6000602084013e6112d8565b606091505b50509050806113295760405162461bcd60e51b815260206004820152601a60248201527f5461736b4d616e616765723a205061796f7574206661696c65640000000000006044820152606401610550565b81602001516001600160a01b0316867f23c972d46b3251ae358ad69fb3761ef8f5c38c5131502ed9e9bde9b129da92158560405161136991815260200190565b60405180910390a350505050506113806001600055565b50565b61138b611900565b6001600160a01b03919091166000908152600760205260409020805460ff1916911515919091179055565b600560205281600052604060002081815481106113d257600080fd5b90600052602060002001600091509150505481565b600660205281600052604060002081815481106113d257600080fd5b61140b611900565b610f456000611985565b61141d6118b2565b600081815260046020526040902060018101546001600160a01b031633146114875760405162461bcd60e51b815260206004820152601860248201527f5461736b4d616e616765723a204e6f742063726561746f7200000000000000006044820152606401610550565b6000600682015460ff1660048111156114a2576114a2611cb9565b14806114c657506001600682015460ff1660048111156114c4576114c4611cb9565b145b6115125760405162461bcd60e51b815260206004820152601a60248201527f5461736b4d616e616765723a2043616e6e6f742063616e63656c0000000000006044820152606401610550565b60068101805460ff1916600317905560048082018054600090915560405163e447bd3560e01b8152918201849052336024830152906001600160a01b037f0000000000000000000000000000000000000000000000000000000000000000169063e447bd3590604401600060405180830381600087803b15801561159557600080fd5b505af11580156115a9573d6000803e3d6000fd5b50505050600081111561165057604051600090339083908381818185875af1925050503d80600081146115f8576040519150601f19603f3d011682016040523d82523d6000602084013e6115fd565b606091505b505090508061164e5760405162461bcd60e51b815260206004820152601a60248201527f5461736b4d616e616765723a20526566756e64206661696c65640000000000006044820152606401610550565b505b60405183907fc6eacc3aa5b2aa77b5a826b832a804ca0b71830ec74f9aa57a15edd978c31ed690600090a250506113806001600055565b61168f611900565b610f456119df565b600460205260009081526040902080546001820154600283015460038401805493946001600160a01b03909316939192916116d190611fa0565b80601f01602080910402602001604051908101604052809291908181526020018280546116fd90611fa0565b801561174a5780601f1061171f5761010080835404028352916020019161174a565b820191906000526020600020905b81548152906001019060200180831161172d57829003601f168201915b5050505050908060040154908060050154908060060160009054906101000a900460ff169080600701549080600801549080600901805461178a90611fa0565b80601f01602080910402602001604051908101604052809291908181526020018280546117b690611fa0565b80156118035780601f106117d857610100808354040283529160200191611803565b820191906000526020600020905b8154815290600101906020018083116117e657829003601f168201915b505050505090508a565b6001600160a01b038116600090815260056020908152604091829020805483518184028101840190945280845260609392830182828015610f295760200282019190600052602060002090815481526020019060010190808311610f155750505050509050919050565b61187f611900565b6001600160a01b0381166118a957604051631e4fbdf760e01b815260006004820152602401610550565b61138081611985565b6002600054036118d557604051633ee5aeb560e01b815260040160405180910390fd5b6002600055565b60015460ff1615610f455760405163d93c066560e01b815260040160405180910390fd5b6001546001600160a01b03610100909104163314610f455760405163118cdaa760e01b8152336004820152602401610550565b61193b611a1a565b6001805460ff191690557f5db9ee0a495bf2e6ff9c91a7834c1ba4fdd244a5e8aa4e537bd38aeae4b073aa335b6040516001600160a01b03909116815260200160405180910390a1565b600180546001600160a01b03838116610100818102610100600160a81b031985161790945560405193909204169182907f8be0079c531659141344cd1fd0a4f28419497f9722a3daafe3b4186f6b6457e090600090a35050565b6119e76118dc565b6001805460ff1916811790557f62e78cea01bee320cd4e420270b5ea74000d11b0c9f74754ebdbfc544b05a25833611968565b60015460ff16610f4557604051638dfc202b60e01b815260040160405180910390fd5b6040518061014001604052806000815260200160006001600160a01b031681526020016000815260200160608152602001600081526020016000815260200160006004811115611a8f57611a8f611cb9565b81526020016000815260200160008152602001606081525090565b60008060408385031215611abd57600080fd5b50508035926020909101359150565b634e487b7160e01b600052604160045260246000fd5b604051610100810167ffffffffffffffff81118282101715611b0657611b06611acc565b60405290565b604051601f8201601f1916810167ffffffffffffffff81118282101715611b3557611b35611acc565b604052919050565b600067ffffffffffffffff821115611b5757611b57611acc565b50601f01601f191660200190565b600082601f830112611b7657600080fd5b8135611b89611b8482611b3d565b611b0c565b818152846020838601011115611b9e57600080fd5b816020850160208301376000918101602001919091529392505050565b600080600060608486031215611bd057600080fd5b833567ffffffffffffffff811115611be757600080fd5b611bf386828701611b65565b9660208601359650604090950135949350505050565b60008060408385031215611c1c57600080fd5b82359150602083013567ffffffffffffffff811115611c3a57600080fd5b611c4685828601611b65565b9150509250929050565b600060208284031215611c6257600080fd5b5035919050565b60005b83811015611c84578181015183820152602001611c6c565b50506000910152565b60008151808452611ca5816020860160208601611c69565b601f01601f19169290920160200192915050565b634e487b7160e01b600052602160045260246000fd5b60058110611ced57634e487b7160e01b600052602160045260246000fd5b9052565b602081528151602082015260006020830151611d1860408401826001600160a01b03169052565b50604083015160608301526060830151610140806080850152611d3f610160850183611c8d565b9150608085015160a085015260a085015160c085015260c0850151611d6760e0860182611ccf565b5060e08501516101008581019190915285015161012080860191909152850151848303601f190182860152611d9c8382611c8d565b9695505050505050565b6020808252825182820181905260009190848201906040850190845b81811015611dde57835183529284019291840191600101611dc2565b50909695505050505050565b6001600160a01b038116811461138057600080fd5b801515811461138057600080fd5b60008060408385031215611e2057600080fd5b8235611e2b81611dea565b91506020830135611e3b81611dff565b809150509250929050565b600060208284031215611e5857600080fd5b8135610ad781611dea565b60008060408385031215611e7657600080fd5b8235611e8181611dea565b946020939093013593505050565b8a81526001600160a01b038a1660208201526040810189905261014060608201819052600090611ec18382018b611c8d565b90508860808401528760a0840152611edc60c0840188611ccf565b8560e084015284610100840152828103610120840152611efc8185611c8d565b9d9c50505050505050505050505050565b6020808252601b908201527f5461736b4d616e616765723a204e6f7420617574686f72697a65640000000000604082015260600190565b8051611f4f81611dff565b919050565b600060208284031215611f6657600080fd5b8151610ad781611dff565b634e487b7160e01b600052601160045260246000fd5b600060018201611f9957611f99611f71565b5060010190565b600181811c90821680611fb457607f821691505b602082108103611fd457634e487b7160e01b600052602260045260246000fd5b50919050565b601f82111561202457600081815260208120601f850160051c810160208610156120015750805b601f850160051c820191505b818110156120205782815560010161200d565b5050505b505050565b815167ffffffffffffffff81111561204357612043611acc565b612057816120518454611fa0565b84611fda565b602080601f83116001811461208c57600084156120745750858301515b600019600386901b1c1916600185901b178555612020565b600085815260208120601f198616915b828110156120bb5788860151825594840194600190910190840161209c565b50858210156120d95787850151600019600388901b60f8161c191681555b5050505050600190811b01905550565b602081526000610ad76020830184611c8d565b808202811582820484141761211357612113611f71565b92915050565b60008261213657634e487b7160e01b600052601260045260246000fd5b500490565b8181038181111561211357612113611f71565b8051611f4f81611dea565b600082601f83011261216a57600080fd5b8151612178611b8482611b3d565b81815284602083860101111561218d57600080fd5b61219e826020830160208701611c69565b949350505050565b6000602082840312156121b857600080fd5b815167ffffffffffffffff808211156121d057600080fd5b9083019061010082860312156121e557600080fd5b6121ed611ae2565b6121f68361214e565b81526122046020840161214e565b602082015260408301518281111561221b57600080fd5b61222787828601612159565b60408301525060608301518281111561223f57600080fd5b61224b87828601612159565b6060830152506080830151608082015260a083015160a082015260c083015160c082015261227b60e08401611f44565b60e08201529594505050505056fea26469706673582212203ae740eddfb940d912be0168e03bd8ad63b260fe1b98afff0786b3f7da71522164736f6c63430008140033",
  "linkReferences": {},
  "deployedLinkReferences": {}
}